{
  "_format": "hh-sol-artifact-1",
  "contractName": "Game1",
  "sourceName": "contracts/Game1.sol",
  "abi": [
    {
      "inputs": [],
      "name": "isWon",
      "outputs": [
        {
          "internalType": "bool",
          "name": "",
          "type": "bool"
        }
      ],
      "stateMutability": "view",
      "type": "function"
    },
    {
      "inputs": [],
      "name": "unlock",
      "outputs": [],
      "stateMutability": "nonpayable",
      "type": "function"
    },
    {
      "inputs": [],
      "name": "unlocked",
      "outputs": [
        {
          "internalType": "bool",
          "name": "",
          "type": "bool"
        }
      ],
      "stateMutability": "view",
      "type": "function"
    },
    {
      "inputs": [],
      "name": "win",
      "outputs": [],
      "stateMutability": "nonpayable",
      "type": "function"
    }
  ],
  "bytecode": "0x608060405234801561001057600080fd5b506101ba806100206000396000f3fe608060405234801561001057600080fd5b506004361061004c5760003560e01c8063473ca96c146100515780636a5e26501461005b57806385ea0a831461007b578063a69df4b51461009b575b600080fd5b6100596100a5565b005b610063610143565b60405180821515815260200191505060405180910390f35b610083610156565b60405180821515815260200191505060405180910390f35b6100a3610167565b005b600060019054906101000a900460ff16610127576040517f08c379a00000000000000000000000000000000000000000000000000000000081526004018080602001828103825260108152602001807f4e6f70652e2054727920616761696e210000000000000000000000000000000081525060200191505060405180910390fd5b60016000806101000a81548160ff021916908315150217905550565b600060019054906101000a900460ff1681565b60008054906101000a900460ff1681565b6001600060016101000a81548160ff02191690831515021790555056fea26469706673582212205bfeb1e3d56b06b2a41099b8b5ee1902c304379baabf4c5e79e230a0169edd0864736f6c63430007030033",
  "linkReferences": {},
  "deployedLinkReferences": {}
}