{
  "_format": "hh-sol-artifact-1",
  "contractName": "Game2",
  "sourceName": "contracts/Game2.sol",
  "abi": [
    {
      "inputs": [],
      "name": "isWon",
      "outputs": [
        {
          "internalType": "bool",
          "name": "",
          "type": "bool"
        }
      ],
      "stateMutability": "view",
      "type": "function"
    },
    {
      "inputs": [
        {
          "internalType": "uint256",
          "name": "key",
          "type": "uint256"
        }
      ],
      "name": "switchOn",
      "outputs": [],
      "stateMutability": "payable",
      "type": "function"
    },
    {
      "inputs": [],
      "name": "win",
      "outputs": [],
      "stateMutability": "nonpayable",
      "type": "function"
    }
  ],
  "bytecode": "0x608060405234801561001057600080fd5b506101bd806100206000396000f3fe6080604052600436106100345760003560e01c806309cca8ee14610039578063473ca96c1461006757806385ea0a831461007e575b600080fd5b6100656004803603602081101561004f57600080fd5b81019080803590602001909291905050506100ab565b005b34801561007357600080fd5b5061007c6100d9565b005b34801561008a57600080fd5b50610093610176565b60405180821515815260200191505060405180910390f35b600180600083815260200190815260200160002060006101000a81548160ff02191690831515021790555050565b600160006014815260200190815260200160002060009054906101000a900460ff1661010457600080fd5b60016000602f815260200190815260200160002060009054906101000a900460ff1661012f57600080fd5b6001600060d4815260200190815260200160002060009054906101000a900460ff1661015a57600080fd5b60016000806101000a81548160ff021916908315150217905550565b60008054906101000a900460ff168156fea2646970667358221220abb7e1786f56bda0818eb0495e719192318bba4c1b417173deacc3067d6dca0464736f6c63430007030033",
  "linkReferences": {},
  "deployedLinkReferences": {}
}