{
  "_format": "hh-sol-artifact-1",
  "contractName": "Game5",
  "sourceName": "contracts/Game5.sol",
  "abi": [
    {
      "inputs": [],
      "name": "isWon",
      "outputs": [
        {
          "internalType": "bool",
          "name": "",
          "type": "bool"
        }
      ],
      "stateMutability": "view",
      "type": "function"
    },
    {
      "inputs": [],
      "name": "win",
      "outputs": [],
      "stateMutability": "nonpayable",
      "type": "function"
    }
  ],
  "bytecode": "0x608060405272ffffffffffffffffffffffffffffffffffffff600060016101000a81548173ffffffffffffffffffffffffffffffffffffffff021916908373ffffffffffffffffffffffffffffffffffffffff16021790555034801561006457600080fd5b50610183806100746000396000f3fe608060405234801561001057600080fd5b50600436106100365760003560e01c8063473ca96c1461003b57806385ea0a8314610045575b600080fd5b610043610065565b005b61004d61013c565b60405180821515815260200191505060405180910390f35b600060019054906101000a900473ffffffffffffffffffffffffffffffffffffffff1660601b6bffffffffffffffffffffffff19163360601b6bffffffffffffffffffffffff191610610120576040517f08c379a00000000000000000000000000000000000000000000000000000000081526004018080602001828103825260108152602001807f4e6f70652e2054727920616761696e210000000000000000000000000000000081525060200191505060405180910390fd5b60016000806101000a81548160ff021916908315150217905550565b60008054906101000a900460ff168156fea26469706673582212207ac1aed1f22c1c17fcd85469f9b5403f43e782c7f8fa2b7eebbe1290cc7a62e564736f6c63430007030033",
  "linkReferences": {},
  "deployedLinkReferences": {}
}